{
  "contractName": "CrowdFunding",
  "abi": [
    {
      "inputs": [
        {
          "internalType": "uint256",
          "name": "_target",
          "type": "uint256"
        },
        {
          "internalType": "uint256",
          "name": "_deadline",
          "type": "uint256"
        }
      ],
      "stateMutability": "nonpayable",
      "type": "constructor"
    },
    {
      "inputs": [
        {
          "internalType": "address",
          "name": "",
          "type": "address"
        }
      ],
      "name": "contributors",
      "outputs": [
        {
          "internalType": "uint256",
          "name": "",
          "type": "uint256"
        }
      ],
      "stateMutability": "view",
      "type": "function"
    },
    {
      "inputs": [],
      "name": "deadline",
      "outputs": [
        {
          "internalType": "uint256",
          "name": "",
          "type": "uint256"
        }
      ],
      "stateMutability": "view",
      "type": "function"
    },
    {
      "inputs": [],
      "name": "manager",
      "outputs": [
        {
          "internalType": "address",
          "name": "",
          "type": "address"
        }
      ],
      "stateMutability": "view",
      "type": "function"
    },
    {
      "inputs": [],
      "name": "minimumContribution",
      "outputs": [
        {
          "internalType": "uint256",
          "name": "",
          "type": "uint256"
        }
      ],
      "stateMutability": "view",
      "type": "function"
    },
    {
      "inputs": [],
      "name": "noOfContributors",
      "outputs": [
        {
          "internalType": "uint256",
          "name": "",
          "type": "uint256"
        }
      ],
      "stateMutability": "view",
      "type": "function"
    },
    {
      "inputs": [],
      "name": "numRequests",
      "outputs": [
        {
          "internalType": "uint256",
          "name": "",
          "type": "uint256"
        }
      ],
      "stateMutability": "view",
      "type": "function"
    },
    {
      "inputs": [],
      "name": "raisedAmount",
      "outputs": [
        {
          "internalType": "uint256",
          "name": "",
          "type": "uint256"
        }
      ],
      "stateMutability": "view",
      "type": "function"
    },
    {
      "inputs": [
        {
          "internalType": "uint256",
          "name": "",
          "type": "uint256"
        }
      ],
      "name": "requests",
      "outputs": [
        {
          "internalType": "string",
          "name": "description",
          "type": "string"
        },
        {
          "internalType": "address payable",
          "name": "recipient",
          "type": "address"
        },
        {
          "internalType": "uint256",
          "name": "value",
          "type": "uint256"
        },
        {
          "internalType": "bool",
          "name": "completed",
          "type": "bool"
        },
        {
          "internalType": "uint256",
          "name": "noOfVoters",
          "type": "uint256"
        }
      ],
      "stateMutability": "view",
      "type": "function"
    },
    {
      "inputs": [],
      "name": "target",
      "outputs": [
        {
          "internalType": "uint256",
          "name": "",
          "type": "uint256"
        }
      ],
      "stateMutability": "view",
      "type": "function"
    },
    {
      "inputs": [],
      "name": "sendEth",
      "outputs": [],
      "stateMutability": "payable",
      "type": "function"
    },
    {
      "inputs": [],
      "name": "getContractBalance",
      "outputs": [
        {
          "internalType": "uint256",
          "name": "",
          "type": "uint256"
        }
      ],
      "stateMutability": "view",
      "type": "function"
    },
    {
      "inputs": [],
      "name": "refund",
      "outputs": [],
      "stateMutability": "nonpayable",
      "type": "function"
    },
    {
      "inputs": [
        {
          "internalType": "string",
          "name": "_description",
          "type": "string"
        },
        {
          "internalType": "address payable",
          "name": "_recipient",
          "type": "address"
        },
        {
          "internalType": "uint256",
          "name": "_value",
          "type": "uint256"
        }
      ],
      "name": "createRequests",
      "outputs": [],
      "stateMutability": "nonpayable",
      "type": "function"
    },
    {
      "inputs": [
        {
          "internalType": "uint256",
          "name": "_requestNo",
          "type": "uint256"
        }
      ],
      "name": "voteRequest",
      "outputs": [],
      "stateMutability": "nonpayable",
      "type": "function"
    },
    {
      "inputs": [
        {
          "internalType": "uint256",
          "name": "_requestNo",
          "type": "uint256"
        }
      ],
      "name": "makePayment",
      "outputs": [],
      "stateMutability": "nonpayable",
      "type": "function"
    }
  ],
  "bytecode": "0x60806040523480156200001157600080fd5b5060405162001871380380620018718339818101604052810190620000379190620000e3565b8160048190555080426200004c919062000159565b600381905550606460028190555033600160006101000a81548173ffffffffffffffffffffffffffffffffffffffff021916908373ffffffffffffffffffffffffffffffffffffffff1602179055505050620001b6565b600080fd5b6000819050919050565b620000bd81620000a8565b8114620000c957600080fd5b50565b600081519050620000dd81620000b2565b92915050565b60008060408385031215620000fd57620000fc620000a3565b5b60006200010d85828601620000cc565b92505060206200012085828601620000cc565b9150509250929050565b7f4e487b7100000000000000000000000000000000000000000000000000000000600052601160045260246000fd5b60006200016682620000a8565b91506200017383620000a8565b9250827fffffffffffffffffffffffffffffffffffffffffffffffffffffffffffffffff03821115620001ab57620001aa6200012a565b5b828201905092915050565b6116ab80620001c66000396000f3fe6080604052600436106100e85760003560e01c80635114cb521161008a578063937e09b111610059578063937e09b1146102b35780639fb42b1f146102de578063c59ee1dc14610309578063d4b8399214610334576100e8565b80635114cb5214610207578063590e1ae3146102305780636f9fb98a1461024757806381d12c5814610272576100e8565b80633eb7647b116100c65780633eb7647b1461015f578063481c6a75146101885780634cb6f4a5146101b35780634e260f6f146101dc576100e8565b806306e99fef146100ed5780631f6d4942146100f757806329dcb0cf14610134575b600080fd5b6100f561035f565b005b34801561010357600080fd5b5061011e60048036038101906101199190610d7d565b6104b8565b60405161012b9190610dc3565b60405180910390f35b34801561014057600080fd5b506101496104d0565b6040516101569190610dc3565b60405180910390f35b34801561016b57600080fd5b5061018660048036038101906101819190610f8e565b6104d6565b005b34801561019457600080fd5b5061019d610629565b6040516101aa919061100c565b60405180910390f35b3480156101bf57600080fd5b506101da60048036038101906101d59190611027565b61064f565b005b3480156101e857600080fd5b506101f16107f4565b6040516101fe9190610dc3565b60405180910390f35b34801561021357600080fd5b5061022e60048036038101906102299190611027565b6107fa565b005b34801561023c57600080fd5b506102456109ee565b005b34801561025357600080fd5b5061025c610b5d565b6040516102699190610dc3565b60405180910390f35b34801561027e57600080fd5b5061029960048036038101906102949190611027565b610b65565b6040516102aa959493929190611106565b60405180910390f35b3480156102bf57600080fd5b506102c8610c50565b6040516102d59190610dc3565b60405180910390f35b3480156102ea57600080fd5b506102f3610c56565b6040516103009190610dc3565b60405180910390f35b34801561031557600080fd5b5061031e610c5c565b60405161032b9190610dc3565b60405180910390f35b34801561034057600080fd5b50610349610c62565b6040516103569190610dc3565b60405180910390f35b60035442106103a3576040517f08c379a000000000000000000000000000000000000000000000000000000000815260040161039a906111ac565b60405180910390fd5b6002543410156103e8576040517f08c379a00000000000000000000000000000000000000000000000000000000081526004016103df90611218565b60405180910390fd5b60008060003373ffffffffffffffffffffffffffffffffffffffff1673ffffffffffffffffffffffffffffffffffffffff168152602001908152602001600020541415610448576006600081548092919061044290611267565b91905055505b346000803373ffffffffffffffffffffffffffffffffffffffff1673ffffffffffffffffffffffffffffffffffffffff168152602001908152602001600020600082825461049691906112b0565b9250508190555034600560008282546104af91906112b0565b92505081905550565b60006020528060005260406000206000915090505481565b60035481565b600160009054906101000a900473ffffffffffffffffffffffffffffffffffffffff1673ffffffffffffffffffffffffffffffffffffffff163373ffffffffffffffffffffffffffffffffffffffff1614610566576040517f08c379a000000000000000000000000000000000000000000000000000000000815260040161055d90611378565b60405180910390fd5b600060076000600854815260200190815260200160002090506008600081548092919061059290611267565b9190505550838160000190805190602001906105af929190610c68565b50828160010160006101000a81548173ffffffffffffffffffffffffffffffffffffffff021916908373ffffffffffffffffffffffffffffffffffffffff16021790555081816002018190555060008160030160006101000a81548160ff0219169083151502179055506000816004018190555050505050565b600160009054906101000a900473ffffffffffffffffffffffffffffffffffffffff1681565b60008060003373ffffffffffffffffffffffffffffffffffffffff1673ffffffffffffffffffffffffffffffffffffffff16815260200190815260200160002054116106d0576040517f08c379a00000000000000000000000000000000000000000000000000000000081526004016106c7906113e4565b60405180910390fd5b6000600760008381526020019081526020016000209050600015158160050160003373ffffffffffffffffffffffffffffffffffffffff1673ffffffffffffffffffffffffffffffffffffffff16815260200190815260200160002060009054906101000a900460ff1615151461077c576040517f08c379a000000000000000000000000000000000000000000000000000000000815260040161077390611450565b60405180910390fd5b60018160050160003373ffffffffffffffffffffffffffffffffffffffff1673ffffffffffffffffffffffffffffffffffffffff16815260200190815260200160002060006101000a81548160ff0219169083151502179055508060040160008154809291906107eb90611267565b91905055505050565b60065481565b600160009054906101000a900473ffffffffffffffffffffffffffffffffffffffff1673ffffffffffffffffffffffffffffffffffffffff163373ffffffffffffffffffffffffffffffffffffffff161461088a576040517f08c379a000000000000000000000000000000000000000000000000000000000815260040161088190611378565b60405180910390fd5b600454600554101561089b57600080fd5b6000600760008381526020019081526020016000209050600015158160030160009054906101000a900460ff1615151461090a576040517f08c379a0000000000000000000000000000000000000000000000000000000008152600401610901906114bc565b60405180910390fd5b6002600654610919919061150b565b81600401541161095e576040517f08c379a000000000000000000000000000000000000000000000000000000000815260040161095590611588565b60405180910390fd5b8060010160009054906101000a900473ffffffffffffffffffffffffffffffffffffffff1673ffffffffffffffffffffffffffffffffffffffff166108fc82600201549081150290604051600060405180830381858888f193505050501580156109cc573d6000803e3d6000fd5b5060018160030160006101000a81548160ff0219169083151502179055505050565b60035442118015610a025750600454600554105b610a41576040517f08c379a0000000000000000000000000000000000000000000000000000000008152600401610a38906115f4565b60405180910390fd5b60008060003373ffffffffffffffffffffffffffffffffffffffff1673ffffffffffffffffffffffffffffffffffffffff1681526020019081526020016000205411610a8c57600080fd5b60003390508073ffffffffffffffffffffffffffffffffffffffff166108fc6000803373ffffffffffffffffffffffffffffffffffffffff1673ffffffffffffffffffffffffffffffffffffffff168152602001908152602001600020549081150290604051600060405180830381858888f19350505050158015610b15573d6000803e3d6000fd5b5060008060003373ffffffffffffffffffffffffffffffffffffffff1673ffffffffffffffffffffffffffffffffffffffff1681526020019081526020016000208190555050565b600047905090565b6007602052806000526040600020600091509050806000018054610b8890611643565b80601f0160208091040260200160405190810160405280929190818152602001828054610bb490611643565b8015610c015780601f10610bd657610100808354040283529160200191610c01565b820191906000526020600020905b815481529060010190602001808311610be457829003601f168201915b5050505050908060010160009054906101000a900473ffffffffffffffffffffffffffffffffffffffff16908060020154908060030160009054906101000a900460ff16908060040154905085565b60025481565b60085481565b60055481565b60045481565b828054610c7490611643565b90600052602060002090601f016020900481019282610c965760008555610cdd565b82601f10610caf57805160ff1916838001178555610cdd565b82800160010185558215610cdd579182015b82811115610cdc578251825591602001919060010190610cc1565b5b509050610cea9190610cee565b5090565b5b80821115610d07576000816000905550600101610cef565b5090565b6000604051905090565b600080fd5b600080fd5b600073ffffffffffffffffffffffffffffffffffffffff82169050919050565b6000610d4a82610d1f565b9050919050565b610d5a81610d3f565b8114610d6557600080fd5b50565b600081359050610d7781610d51565b92915050565b600060208284031215610d9357610d92610d15565b5b6000610da184828501610d68565b91505092915050565b6000819050919050565b610dbd81610daa565b82525050565b6000602082019050610dd86000830184610db4565b92915050565b600080fd5b600080fd5b6000601f19601f8301169050919050565b7f4e487b7100000000000000000000000000000000000000000000000000000000600052604160045260246000fd5b610e3182610de8565b810181811067ffffffffffffffff82111715610e5057610e4f610df9565b5b80604052505050565b6000610e63610d0b565b9050610e6f8282610e28565b919050565b600067ffffffffffffffff821115610e8f57610e8e610df9565b5b610e9882610de8565b9050602081019050919050565b82818337600083830152505050565b6000610ec7610ec284610e74565b610e59565b905082815260208101848484011115610ee357610ee2610de3565b5b610eee848285610ea5565b509392505050565b600082601f830112610f0b57610f0a610dde565b5b8135610f1b848260208601610eb4565b91505092915050565b6000610f2f82610d1f565b9050919050565b610f3f81610f24565b8114610f4a57600080fd5b50565b600081359050610f5c81610f36565b92915050565b610f6b81610daa565b8114610f7657600080fd5b50565b600081359050610f8881610f62565b92915050565b600080600060608486031215610fa757610fa6610d15565b5b600084013567ffffffffffffffff811115610fc557610fc4610d1a565b5b610fd186828701610ef6565b9350506020610fe286828701610f4d565b9250506040610ff386828701610f79565b9150509250925092565b61100681610d3f565b82525050565b60006020820190506110216000830184610ffd565b92915050565b60006020828403121561103d5761103c610d15565b5b600061104b84828501610f79565b91505092915050565b600081519050919050565b600082825260208201905092915050565b60005b8381101561108e578082015181840152602081019050611073565b8381111561109d576000848401525b50505050565b60006110ae82611054565b6110b8818561105f565b93506110c8818560208601611070565b6110d181610de8565b840191505092915050565b6110e581610f24565b82525050565b60008115159050919050565b611100816110eb565b82525050565b600060a082019050818103600083015261112081886110a3565b905061112f60208301876110dc565b61113c6040830186610db4565b61114960608301856110f7565b6111566080830184610db4565b9695505050505050565b7f446561646c696e65206861732070617373656400000000000000000000000000600082015250565b600061119660138361105f565b91506111a182611160565b602082019050919050565b600060208201905081810360008301526111c581611189565b9050919050565b7f4d696e696d756d20436f6e747269627574696f6e206973206e6f74206d657400600082015250565b6000611202601f8361105f565b915061120d826111cc565b602082019050919050565b60006020820190508181036000830152611231816111f5565b9050919050565b7f4e487b7100000000000000000000000000000000000000000000000000000000600052601160045260246000fd5b600061127282610daa565b91507fffffffffffffffffffffffffffffffffffffffffffffffffffffffffffffffff8214156112a5576112a4611238565b5b600182019050919050565b60006112bb82610daa565b91506112c683610daa565b9250827fffffffffffffffffffffffffffffffffffffffffffffffffffffffffffffffff038211156112fb576112fa611238565b5b828201905092915050565b7f4f6e6c79206d616e616765722063616e2063616c6c6c20746869732066756e6360008201527f74696f6e00000000000000000000000000000000000000000000000000000000602082015250565b600061136260248361105f565b915061136d82611306565b604082019050919050565b6000602082019050818103600083015261139181611355565b9050919050565b7f594f75206d75737420626520636f6e7472696275746f72000000000000000000600082015250565b60006113ce60178361105f565b91506113d982611398565b602082019050919050565b600060208201905081810360008301526113fd816113c1565b9050919050565b7f596f75206861766520616c726561647920766f74656400000000000000000000600082015250565b600061143a60168361105f565b915061144582611404565b602082019050919050565b600060208201905081810360008301526114698161142d565b9050919050565b7f546865207265717565737420686173206265656e20636f6d706c657465640000600082015250565b60006114a6601e8361105f565b91506114b182611470565b602082019050919050565b600060208201905081810360008301526114d581611499565b9050919050565b7f4e487b7100000000000000000000000000000000000000000000000000000000600052601260045260246000fd5b600061151682610daa565b915061152183610daa565b925082611531576115306114dc565b5b828204905092915050565b7f4d616a6f7269747920646f6573206e6f7420737570706f727400000000000000600082015250565b600061157260198361105f565b915061157d8261153c565b602082019050919050565b600060208201905081810360008301526115a181611565565b9050919050565b7f596f7520617265206e6f7420656c696769626c6520666f7220726566756e6400600082015250565b60006115de601f8361105f565b91506115e9826115a8565b602082019050919050565b6000602082019050818103600083015261160d816115d1565b9050919050565b7f4e487b7100000000000000000000000000000000000000000000000000000000600052602260045260246000fd5b6000600282049050600182168061165b57607f821691505b6020821081141561166f5761166e611614565b5b5091905056fea26469706673582212204db9a4e0533eb4278476adfd95b51e42a452945c198ec4db782f131919d349e264736f6c634300080a0033",
  "immutableReferences": {},
  "source": "//SPDX-License-Identifier: UNLICENSED\r\n\r\npragma solidity ^0.8.10;\r\n\r\ncontract CrowdFunding{\r\n    mapping(address=>uint) public contributors; //contributors[msg.sender]=100\r\n    address public manager; \r\n    uint public minimumContribution;\r\n    uint public deadline;\r\n    uint public target;\r\n    uint public raisedAmount;\r\n    uint public noOfContributors;\r\n    \r\n    struct Request{\r\n        string description;\r\n        address payable recipient;\r\n        uint value;\r\n        bool completed;\r\n        uint noOfVoters;\r\n        mapping(address=>bool) voters;\r\n    }\r\n    mapping(uint=>Request) public requests;\r\n    uint public numRequests;\r\n    constructor(uint _target,uint _deadline){\r\n        target=_target;\r\n        deadline=block.timestamp+_deadline; //10sec + 3600sec (60*60)\r\n        minimumContribution=100 wei;\r\n        manager=msg.sender;\r\n    }\r\n    \r\n    function sendEth() public payable{\r\n        require(block.timestamp < deadline,\"Deadline has passed\");\r\n        require(msg.value >=minimumContribution,\"Minimum Contribution is not met\");\r\n        \r\n        if(contributors[msg.sender]==0){\r\n            noOfContributors++;\r\n        }\r\n        contributors[msg.sender]+=msg.value;\r\n        raisedAmount+=msg.value;\r\n    }\r\n    function getContractBalance() public view returns(uint){\r\n        return address(this).balance;\r\n    }\r\n    function refund() public{\r\n        require(block.timestamp>deadline && raisedAmount<target,\"You are not eligible for refund\");\r\n        require(contributors[msg.sender]>0);\r\n        address payable user=payable(msg.sender);\r\n        user.transfer(contributors[msg.sender]);\r\n        contributors[msg.sender]=0;\r\n        \r\n    }\r\n    modifier onlyManager(){\r\n        require(msg.sender==manager,\"Only manager can calll this function\");\r\n        _;\r\n    }\r\n    function createRequests(string memory _description,address payable _recipient,uint _value) public onlyManager{\r\n        Request storage newRequest = requests[numRequests];\r\n        numRequests++;\r\n        newRequest.description=_description;\r\n        newRequest.recipient=_recipient;\r\n        newRequest.value=_value;\r\n        newRequest.completed=false;\r\n        newRequest.noOfVoters=0;\r\n    }\r\n    function voteRequest(uint _requestNo) public{\r\n        require(contributors[msg.sender]>0,\"YOu must be contributor\");\r\n        Request storage thisRequest=requests[_requestNo];\r\n        require(thisRequest.voters[msg.sender]==false,\"You have already voted\");\r\n        thisRequest.voters[msg.sender]=true;\r\n        thisRequest.noOfVoters++;\r\n    }\r\n\r\n    function makePayment(uint _requestNo) public onlyManager{\r\n        require(raisedAmount>=target);\r\n        Request storage thisRequest=requests[_requestNo];\r\n        require(thisRequest.completed==false,\"The request has been completed\");\r\n        require(thisRequest.noOfVoters > noOfContributors/2,\"Majority does not support\");\r\n        thisRequest.recipient.transfer(thisRequest.value);\r\n        thisRequest.completed=true;\r\n    }\r\n}",
  "sourcePath": "C:\\Users\\dell\\Desktop\\ethereum\\web3\\contracts\\crowdfunding.sol",
  "compiler": {
    "name": "solc",
    "version": "0.8.10+commit.fc410830.Emscripten.clang"
  },
  "schemaVersion": "3.4.4",
  "updatedAt": "2022-01-05T18:41:44.626Z",
  "devdoc": {
    "kind": "dev",
    "methods": {},
    "version": 1
  },
  "userdoc": {
    "kind": "user",
    "methods": {},
    "version": 1
  }
}